:100000000C942A000C9447000C9447000C94470071
:100010000C9447000C9447000C9447000C94470044
:100020000C9447000C9447000C9447000C94470034
:100030000C9447000C9447000C9447000C94470024
:100040000C9447000C9447000C9447000C94470014
:100050000C94470011241FBECFE5D8E0DEBFCDBF12
:1000600010E0A0E6B0E0E8EAFEE002C005900D92E4
:10007000A03AB107D9F720E0A0EAB0E001C01D9294
:10008000A33EB207E1F70E94FD030C9452070C94C3
:1000900000008FE08ABB089580E020C09FEF9BBBEB
:1000A000811103C09BB39E7F9BBB813019F49BB32E
:1000B0009D7F9BBB823019F49BB39B7F9BBB83309E
:1000C00019F49BB3977F9BBB99B3907F903F29F026
:1000D00029B3207F203FE1F703C08F5F8430F0F227
:1000E000843009F451C08130C9F028F0823041F1E8
:1000F0008330C1F14BC0903B69F018F4903761F048
:1001000007C0903D09F444C0903E11F487E0089583
:1001100080E0089589E008958AE00895903B61F0B9
:1001200018F4903759F006C0903DA1F1903E11F4BB
:1001300084E0089580E0089586E008958BE00895B6
:10014000903B61F018F4903759F006C0903D21F1D2
:10015000903E11F481E0089580E0089583E00895D1
:100160008CE00895903B61F018F4903759F006C088
:10017000903DA1F0903E11F48FE0089580E0089545
:100180008EE008958DE0089580E0089580E0089560
:1001900088E0089585E0089582E0089580E3089559
:1001A00080FF04C098B3916098BB03C098B39E7F52
:1001B00098BB81FF04C098B3926098BB03C098B30A
:1001C0009D7F98BB82FF04C098B3946098BB03C026
:1001D00098B39B7F98BB83FF04C088B3886088BBBB
:1001E000089588B3877F88BB0895811103C098B3B1
:1001F0009F7D98BB813019F488B3806288BB0895D5
:1002000088B3806188BB87EC90E00197F1F700C06C
:10021000000088B38F7E88BB8FEC97E00197F1F7E1
:1002200000C00000089587B38F6387BB0895CF9304
:10023000C82F80E00E94F5008C2F0E94D0000E9401
:100240000001CF9108950E94130180E00E941701E0
:1002500082E00E94170182E00E94170188E00E945C
:10026000170180E00E9417018CE00E94170180E0D6
:100270000E94170186E00E9417010895CF93DF9333
:10028000D82FD07FC82FCF7081E00E94F5008D2F2E
:1002900082958F700E94D0000E9400018C2F0E94D6
:1002A000D0000E940001DF91CF910895CF93C62F17
:1002B000811107C088E00E9417018C2F0E9417014E
:1002C00008C0813031F48CE00E9417018C2F0E940D
:1002D0001701CF91089580E00E94170181E00E94EC
:1002E000170180E00E94170182E00E941701089523
:1002F000CF93DF93EA010E94560103C00E943E01A2
:10030000219688818111FACFDF91CF9108958235AE
:1003100039F481E00E94170188E00E9417010895D6
:100320008C3431F481E00E9417018CE00E941701A7
:1003300008950E9449000E94230108958091AB0016
:100340009091AC008D30910571F41092AC00109238
:10035000AB0081E090E09093AA008093A9008BE22B
:100360008093A80008958C30910571F41092AC0030
:100370001092AB0082E090E09093AA008093A900D5
:100380008DE28093A80008958B30910571F410924E
:10039000AC001092AB0083E090E09093AA008093B1
:1003A000A90088E78093A80008958A30910571F428
:1003B0001092AC001092AB0084E090E09093AA0001
:1003C0008093A9008FE28093A80008958E30910554
:1003D00059F41092AC001092AB0085E090E090933D
:1003E000AA008093A90008958033910529F4109202
:1003F000AC001092AB0008950F97D1F41092A400B6
:100400001092A5001092A6001092A7001092A000D2
:100410001092A1001092A2001092A3001092AA00C4
:100420001092A9001092AC001092AB000E946B01D8
:100430000895BF92CF92DF92EF92FF920F931F9396
:10044000CF93DF938091A9009091AA00009709F0C3
:100450004BC08091A4009091A500A091A600B091FE
:10046000A700880F991FAA1FBB1FAC01BD01440F35
:10047000551F661F771F440F551F661F771F840F78
:10048000951FA61FB71F2091AB003091AC00820FC3
:10049000931FA11DB11D8093A4009093A500A0936C
:1004A000A600B093A7009093E0008093DF00BF9375
:1004B000AF939F938F9386E690E09F938F938DEAFF
:1004C00090E09F938F930E9468044DEA50E060E0B3
:1004D00080E00E9478018DB79EB708960FB6F89419
:1004E0009EBF0FBE8DBF6DC19C01215031092430CC
:1004F000310508F05BC08091A0009091A100A0910F
:10050000A200B091A300880F991FAA1FBB1FAC01C6
:10051000BD01440F551F661F771F440F551F661FEF
:10052000771F840F951FA61FB71F2091AB00309136
:10053000AC00820F931FA11DB11D8093A00090936A
:10054000A100A093A200B093A3009093E200809337
:10055000E100BF93AF939F938F938091A8001F9268
:100560008F938091A7008F938091A6008F938091A5
:10057000A5008F938091A4008F9380E690E09F93D5
:100580008F938DEA90E09F938F930E9468044DEAC9
:1005900050E060E080E00E9478018DB79EB70E9633
:1005A0000FB6F8949EBF0FBE8DBF0BC1059709F023
:1005B00008C1C091A800CB32C1F58091A4009091F0
:1005C000A500A091A600B091A7004091A000509175
:1005D000A1006091A2007091A3009C01240F351F1F
:1005E0003F932F937F936F935F934F931F92CF937C
:1005F000BF93AF939F938F938BE690E09F938F93DE
:100600008DEA90E09F938F930E9468044DEA50E03A
:1006100060E080E00E9478018DB79EB740960FB6EB
:10062000F8949EBF0FBE8DBFB8C0CD32C1F580918A
:10063000A4009091A500A091A600B091A7004091C0
:10064000A0005091A1006091A2007091A3009C01B4
:10065000241B350B3F932F937F936F935F934F939F
:100660001F92CF93BF93AF939F938F938BE690E0AE
:100670009F938F938DEA90E09F938F930E946804DD
:100680004DEA50E060E080E00E9478018DB79EB7AF
:1006900040960FB6F8949EBF0FBE8DBF7EC0C83780
:1006A000E1F58091A4009091A500A091A600B091E1
:1006B000A7004091A0005091A1006091A20070910C
:1006C000A300849F9001859F300D949F300D1124CD
:1006D0003F932F937F936F935F934F931F92CF938B
:1006E000BF93AF939F938F938BE690E09F938F93ED
:1006F0008DEA90E09F938F930E9468044DEA50E04A
:1007000060E080E00E9478018DB79EB740960FB6FA
:10071000F8949EBF0FBE8DBF40C0CF32F1F5D0918F
:10072000A4001091A5000091A600F090A700E09011
:10073000A000D090A100C090A200B090A3006D2FA7
:10074000712F802F9F2D2E2D3D2D4C2D5B2D0E9426
:1007500027043F932F93BF92CF92DF92EF921F9285
:10076000CF93FF920F931F93DF938BE690E09F93BD
:100770008F938DEA90E09F938F930E9468044DEAD7
:1007800050E060E080E00E9478018DB79EB740960F
:100790000FB6F8949EBF0FBE8DBF1092A4001092AA
:1007A000A5001092A6001092A7001092A00010922F
:1007B000A1001092A2001092A3001092AA00109221
:1007C000A900DF91CF911F910F91FF90EF90DF90E3
:1007D000CF90BF9008950E944C0090E09093AC00A1
:1007E0008093AB00892B41F00E949E010E94190268
:1007F0001092AC001092AB0008950E94990149E755
:1008000050E060E080E00E9478014EE850E064E053
:1008100081E00E9478012FEF80E792E02150804034
:100820009040E1F700C00000C0E0D0E00AC08FE1D6
:100830009EE40197F1F700C000008CE40E9487015C
:100840002196C931D1059CF30E94EB03FDCF052E03
:1008500097FB1EF400940E943E0457FD07D00E94AF
:10086000460407FC03D04EF40C943E04509540958A
:10087000309521953F4F4F4F5F4F0895909580954C
:10088000709561957F4F8F4F9F4F0895A1E21A2E6B
:10089000AA1BBB1BFD010DC0AA1FBB1FEE1FFF1F24
:1008A000A217B307E407F50720F0A21BB30BE40B74
:1008B000F50B661F771F881F991F1A9469F76095BB
:1008C0007095809590959B01AC01BD01CF01089575
:1008D000AEE0B0E0EEE6F4E00C9429070D891E8945
:1008E00086E08C831A8309838FEF9FE79E838D8335
:1008F000AE01475E5F4F6F89788DCE0101960E94F1
:100900008A04EF81F885E00FF11F10822E96E4E053
:100910000C944507ABE0B0E0E0E9F4E00C941B0771
:100920006C017B018A01FC0117821682838181FFA1
:10093000CCC1CE0101963C01F6019381F70193FDF4
:10094000859193FF81917F01882309F4BAC1853293
:1009500039F493FD859193FF81917F01853229F4CC
:10096000B60190E00E948106E7CF912C212C312C1A
:10097000FFE1F315D8F08B3279F038F4803279F05A
:100980008332A1F4232D20611DC08D3261F08033AC
:1009900069F4232D216016C0832D8260382EE32D4B
:1009A000E4603E2E2AC0F32DF8601DC037FC2DC038
:1009B00020ED280F2A3040F08E32B9F436FC81C188
:1009C000232D2064322E19C036FE06C08AE0989E80
:1009D000200D1124922E11C0EAE02E9E200D11242C
:1009E000222EF32DF0623F2E08C08C3621F4832D89
:1009F0008068382E02C0883641F4F70193FD859156
:100A000093FF81917F018111B3CF982F9F7D9554E2
:100A1000933028F40C5F1F4F9FE399830DC08336FA
:100A200031F0833771F0833509F059C021C0F801E6
:100A3000808189830E5F1F4F88248394912C5301FA
:100A400013C02801F2E04F0E511CF801A080B180C4
:100A500036FE03C0692D70E002C06FEF7FEFC50165
:100A60000E9476064C018201F32DFF773F2E16C0BF
:100A7000280122E0420E511CF801A080B18036FE10
:100A800003C0692D70E002C06FEF7FEFC5010E94C7
:100A90006B064C01F32DF0683F2E820133FC1BC026
:100AA000822D90E088169906B0F4B60180E290E0BD
:100AB0000E9481062A94F4CFF50137FC859137FE18
:100AC00081915F01B60190E00E94810621102A9475
:100AD00021E0821A91088114910471F7E8C08436EC
:100AE00011F0893641F5F80137FE07C06081718148
:100AF000828193810C5F1F4F08C060817181072E36
:100B0000000C880B990B0E5F1F4FF32DFF763F2EC5
:100B100097FF09C090958095709561957F4F8F4F95
:100B20009F4FF0683F2E2AE030E0A3010E94BD06EF
:100B3000882E861845C0853731F4232D2F7EB22E9E
:100B40002AE030E025C0932D997FB92E8F36C1F071
:100B500018F4883579F0B5C0803719F0883721F05E
:100B6000B0C0E92FE061BE2EB4FE0DC0FB2DF460D5
:100B7000BF2E09C034FE0AC0292F2660B22E06C03F
:100B800028E030E005C020E130E002C020E132E0A2
:100B9000F801B7FE07C060817181828193810C5F8B
:100BA0001F4F06C06081718180E090E00E5F1F4F93
:100BB000A3010E94BD06882E8618FB2DFF773F2ECD
:100BC00036FE0DC0232D2E7FA22E891458F434FE3C
:100BD0000BC032FC09C0832D8E7EA82E05C0B82C18
:100BE000A32C03C0B82C01C0B92CA4FE0FC0FE0179
:100BF000E80DF11D8081803321F49A2D997EA92E74
:100C000009C0A2FE06C0B394B39404C08A2D8678AE
:100C100009F0B394A3FC11C0A0FE06C0B21488F47E
:100C2000280C922C9B180EC0B21460F4B60180E21E
:100C300090E00E948106B394F7CFB21418F42B18F9
:100C400002C0982C212CA4FE10C0B60180E390E0D5
:100C50000E948106A2FE17C0A1FC03C088E790E0B5
:100C600002C088E590E0B6010CC08A2D867859F064
:100C7000A1FE02C08BE201C080E2A7FC8DE2B601BA
:100C800090E00E948106891438F4B60180E390E078
:100C90000E9481069A94F7CF8A94F301E80DF11D22
:100CA0008081B60190E00E9481068110F5CF22205C
:100CB00009F442CEB60180E290E00E9481062A94B7
:100CC000F6CFF6018681978102C08FEF9FEF2B96BA
:100CD000E2E10C943707FC0105906150704001106F
:100CE000D8F7809590958E0F9F1F0895FC01615055
:100CF000704001900110D8F7809590958E0F9F1F3E
:100D000008950F931F93CF93DF93FB01238121FD60
:100D100003C08FEF9FEF2CC022FF16C04681578182
:100D2000248135814217530744F4A081B1819D018C
:100D30002F5F3F4F318320838C93268137812F5F34
:100D40003F4F3783268314C08B01EC01FB010084E5
:100D5000F185E02D0995892BE1F6D80116968D9144
:100D60009C911797019617969C938E931697CE0198
:100D7000DF91CF911F910F910895FA01AA27283092
:100D800051F1203181F1E8946F936E7F6E5F7F4F58
:100D90008F4F9F4FAF4FB1E03ED0B4E03CD0670FD4
:100DA000781F891F9A1FA11D680F791F8A1F911D27
:100DB000A11D6A0F711D811D911DA11D20D009F477
:100DC00068943F912AE0269F11243019305D3193B9
:100DD000DEF6CF010895462F4770405D4193B3E0A2
:100DE0000FD0C9F7F6CF462F4F70405D4A3318F049
:100DF000495D31FD4052419302D0A9F7EACFB4E0FA
:100E0000A6959795879577956795BA95C9F70097B1
:100E10006105710508959B01AC010A2E0694579552
:100E2000479537952795BA95C9F7620F731F841FA9
:100E3000951FA01D08952F923F924F925F926F923F
:100E40007F928F929F92AF92BF92CF92DF92EF925A
:100E5000FF920F931F93CF93DF93CDB7DEB7CA1BDB
:100E6000DB0B0FB6F894DEBF0FBECDBF09942A8806
:100E7000398848885F846E847D848C849B84AA84AE
:100E8000B984C884DF80EE80FD800C811B81AA813B
:100E9000B981CE0FD11D0FB6F894DEBF0FBECDBF06
:080EA000ED010895F894FFCF65
:100EA80025316C69256325316C690025316C69250C
:100EB8006325316C693D2564005768656E202020E4
:100EC800202020436F6D65202020203B290044729C
:100ED80065616D732020202054727565203B2900C0
:00000001FF
